:020000040800F2
:1000000058210020552D00087103000873030008D3
:10001000770300087B0300087F030008000000004E
:100020000000000000000000000000008303000842
:10003000850300080000000087030008ED11000898
:100040006F2D00086F2D00086F2D00086F2D000820
:100050006F2D00086F2D00086F2D00086F2D000810
:100060006F2D00086F2D00086F2D00086F2D000800
:100070006F2D00086F2D00086F2D00086F2D0008F0
:100080006F2D00086F2D00086F2D00086F2D0008E0
:100090006F2D00086F2D00086F2D00086F2D0008D0
:1000A0006F2D00086F2D00086F2D00086F2D0008C0
:1000B000A90F00086F2D00080D0F00086F2D000814
:1000C0006F2D00086F2D00086F2D00086F2D0008A0
:1000D0006F2D0008751A000851100008E51B000874
:1000E0006F2D00086F2D00086F2D000800F002F83A
:1000F00000F0B4F80AA090E8000C82448344AAF10E
:100100000107DA4501D100F0A9F8AFF2090EBAE80B
:100110000F0013F0010F18BFFB1A43F0010318473B
:100120009C530000BC53000010F8013B0A4413F03C
:10013000030408BF10F8014B1D1108BF10F8015B44
:10014000641E05D010F8016B641E01F8016BF9D133
:10015000002D15D010F8014B03F00C030C2BA1EB74
:1001600004040ABF10F8013BA4EB8314A4EB03249E
:1001700005F1010314F8016B5B1E01F8016BF9D561
:10018000914238BF10F8013BD1D3704700230024BF
:1001900000250026103A28BF78C1FBD8520728BF97
:1001A00030C148BF0B6070476E2903F0438570294A
:1001B00003F08586662905F0FF80652905F0FC803F
:1001C000672905F0F980612905F0F88003681B0AAA
:1001D00028BF41F08001692903F0F084642903F00D
:1001E000ED84752903F0EA846F2903F012867829DB
:1001F00003F05186E92903F0AD85E42903F0AA85CF
:10020000F52903F0A785EF2903F00F86F82903F0FD
:1002100050860368DB0928BF41F08001632904F0A0
:100220005183732904F05683E32904F06183F32991
:1002300004F06683002070471FB504F0B3FB040090
:100240000020002105F0A2F8401C60600020002181
:1002500005F086F8E0601FBD10B510BD04F074FB1A
:100260001146FFF7E9FF00F056F804F04DFC03B427
:10027000FFF7F2FF03BC04F095FC000008B5012174
:10028000102003F011F94FF40050ADF800001020D9
:100290008DF8030003208DF802006946314802F012
:1002A00047FE4FF400512F4802F0EFFE08BD2E49E3
:1002B0000888411C2C4A1180B0F57A7F02DB0020AF
:1002C000114608802948806820B128488068401E6F
:1002D000264988602548006920B124480069401EED
:1002E000224908612148008B20B12048008B401E24
:1002F0001E4908831D48808B20B11C48808B401EFE
:100300001A4988831948C08B20B11848C08B401EF9
:100310001649C883704701F09FFD01F007FE4FF4B6
:10032000165001F0DAFB4FF4165001F08AFC4FF43E
:10033000614000F0BCFE00F017F901F081FD01F012
:1003400089FB00F056FE0BE001F068FB074840888F
:1003500030B106484088401E04494880FFF7A7FF97
:10036000F2E70000000C01400E000020B010002059
:10037000704700BFFEE700BFFEE700BFFEE700BF1B
:10038000FEE77047704770470CB500200190009061
:100390006C48006840F480306A49086000BF6948D2
:1003A000006800F4003000900198401C0190009813
:1003B00018B90198B0F5A06FF1D16248006800F457
:1003C000003010B10120009001E000200090009862
:1003D000012843D15C48006840F010005A49086089
:1003E0000846006820F0030008600846006840F0F6
:1003F0000200086053484068524948600846406817
:1004000048600846406840F480604860084640689C
:1004100020F47C1048600846406840F4E8104860CA
:100420000846006840F08070086000BF45480068DA
:1004300000F000700028F9D04248406820F0030026
:10044000404948600846406840F00200486000BFEC
:100450003C48406800F00C000828F9D10CBD10B5EC
:10046000FFF792FF10BD10B53648006840F001005C
:1004700034490860084640683449084031494860BA
:1004800008460068324908402E490860084600685E
:1004900020F4802008600846406820F4FE00486090
:1004A0004FF41F008860FFF7DAFF4FF00060294922
:1004B000086010BD10B5002100200022214B5B68B0
:1004C00003F00C0121B1042906D0082928D107E046
:1004D000214B224C236027E01F4B204C236023E05C
:1004E000184B5B6803F47010164B5B6803F48032A2
:1004F000022303EB904022B9194B4343174C23606E
:100500000DE0104B5B6803F4003323B1144B4343FD
:10051000124C236003E0104B4343104C236003E074
:100520000D4B0E4C236000BF00BF064B5B68C3F34E
:1005300003130C4CE15C094B1B68CB40074C236058
:1005400010BD000000100240002002400000FFF833
:10055000FFFFF6FE08ED00E000127A001000002018
:1005600000093D001400002008B50121042002F01C
:100570009BFF1020ADF8000028208DF80300032019
:100580008DF802006946FA4802F0D2FC08BD00BFAF
:10059000F849098801F040010029F9D0F549091D01
:1005A0000880704710B5EF20FFF7F1FF0120FFF73B
:1005B000EEFF10BD10B5F0490968080EFFF7E7FF20
:1005C000ED480068C0F30740FFF7E1FFEA48008804
:1005D000C0F30720FFF7DBFFE7490878FFF7D7FFF5
:1005E00010BD10B504462046FFF7D1FF10BD10B571
:1005F0000446C4F30720FFF7CAFFE0B2FFF7C7FFC6
:1006000010BD10B504462046FFF7C1FF10BD10B560
:1006100004462012FFF7BBFFE0B2FFF7B8FF10BDA2
:100620007CB50546EF208DF8000001208DF8010013
:10063000D1480068000E8DF80200CF480068000C19
:100640008DF80300CC480088000A8DF80400CA48E1
:1006500000788DF8050007208DF8060000208DF841
:100660000700C649088012E0012001F032FCC348AF
:10067000008800F4004050B10020C049088069465D
:10068000BF4803F0ABF904460CB120467CBD681EA0
:1006900080B2051EE8D100BFF8E770B5FFF782FF12
:1006A000FFF788FF0120FFF79CFF0320FFF79FFF64
:1006B0000120FFF7A6FF05263046FFF7A8FF4FF4FD
:1006C000FA60FFF7ADFF05460DB16C7A00E0FF243C
:1006D000204670BD2DE9F0410546FFF763FFFFF7A7
:1006E00069FF0120FFF77DFF0420FFF780FF022054
:1006F000FFF787FF2846FFF74AFFEF1D3846FFF751
:1007000086FF4FF4FA60FFF78BFF06460EB1747A4E
:1007100000E0FF242046BDE8F08170B5FFF742FFFE
:10072000FFF748FF0120FFF75CFF0320FFF75FFFA3
:100730000320FFF766FF07263046FFF768FF4FF4F8
:10074000FA60FFF76DFF05460DB16C7A00E0FF24FB
:10075000204670BD2DE9F04781460D4616461F46DE
:10076000FFF720FFFFF726FF0120FFF73AFF0820E1
:10077000FFF73DFF0420FFF744FF4846FFF707FF60
:100780002812FFF704FFE8B2FFF701FF3012FFF76E
:10079000FEFEF0B2FFF7FBFE09F10D0000EB252095
:1007A000E9B2084400EB2620F1B200EB010A504602
:1007B000FFF72DFF4FF4FA60FFF732FF044664B1F4
:1007C00094F80980E07AA17A00EB01203880607B00
:1007D000217B00EB0120788001E04FF0FF084046CC
:1007E000BDE8F08770B5FFF7DDFEFFF7E3FE0120FF
:1007F000FFF7F7FE0320FFF7FAFE0520FFF701FFE2
:1008000009263046FFF703FF4FF4FA60FFF708FFB1
:1008100005460DB16C7A00E0FF24204670BD2DE93D
:10082000F04106460C46FFF7BDFEFFF7C3FE012070
:10083000FFF7D7FE0620FFF7DAFE0620FFF7E1FEFE
:100840003046FFF7A4FE2012FFF7A1FEE0B2FFF74B
:100850009EFE06F10D0000EB2420E1B200EB010842
:100860004046FFF7D4FE4FF4FA60FFF7D9FE074683
:100870000FB17D7A00E0FF252846BDE8F0812DE923
:10088000F04104460D46FFF78DFEFFF793FE012071
:10089000FFF7A7FE0720FFF7AAFE0C20FFF7B1FE27
:1008A0002012FFF774FEE0B2FFF771FE2812FFF787
:1008B0006EFEE8B2FFF76BFE142000EB2420E1B2DD
:1008C000084400EB2520E9B200EB01084046FFF7A1
:1008D0009EFE4FF4FA60FFF7A3FE07460FB17E7A43
:1008E00000E0FF263046BDE8F08170B5FFF75AFE04
:1008F000FFF760FE0120FFF774FE0320FFF777FE8D
:100900000D20FFF77EFE11263046FFF780FE4FF4E4
:10091000FA60FFF785FE05460DB16C7A00E0FF2412
:10092000204670BD2DE9F04106460C46FFF73AFE21
:10093000FFF740FE0120FFF754FE0520FFF757FEAA
:100940000E20FFF75EFE3046FFF721FE2046FFF740
:100950001EFE301900F114084046FFF758FE4FF410
:10096000FA60FFF75DFE074667B17D7A0BE0000095
:100970000008014000440040240000207E000020C8
:1009800094110020FF252846BDE8F0812DE9F041B3
:100990000546FFF707FEFFF70DFE0120FFF721FEDA
:1009A0000320FFF724FE0F20FFF72BFE1327384606
:1009B000FFF72DFE4FF47A70FFF732FE0446BCB10C
:1009C000667AE07BA17B00EB01202880607CA87028
:1009D000A07C0006E17C00EB0140217D00EB0120C2
:1009E000617D08446860E07D2872607E687200E086
:1009F000FF263046BDE8F0812DE9F0410446FFF7BF
:100A0000D1FDFFF7D7FD0120FFF7EBFD0720FFF732
:100A1000EEFD1520FFF7F5FD200EFFF7B8FDC4F33E
:100A20000740FFF7B4FDC4F30720FFF7B0FDE0B2C5
:100A3000FFF7ADFD1D2000EB1460C4F3074108442F
:100A4000C4F307210844E1B247183846FFF7DFFD39
:100A5000B14804604FF4FA60FFF7E2FD06460EB1BC
:100A6000757A00E0FF25AC4804602846BDE8F081B7
:100A70002DE9F04781460E46FFF794FDFFF79AFDFA
:100A80000120FFF7AEFD2420FFF7B1FD1820FFF78E
:100A9000B8FD4846FFF77BFD002407E0305DFFF717
:100AA00076FD305D384487B2601CC4B2202CF5DB83
:100AB00009F13D00384487B23846FFF7A8FD4FF4EE
:100AC000FA60FFF7ADFD054615B195F8098001E024
:100AD0004FF0FF084046BDE8F0872DE9F047074694
:100AE0008846FFF75FFDFFF765FD0120FFF779FD01
:100AF0000420FFF77CFD1920FFF783FD3846FFF740
:100B000046FD07F11E094846FFF781FD4FF4FA60E4
:100B1000FFF786FD064666B1757A002406E004F10B
:100B20000A00305C08F80400601CC4B2202CF6DB1C
:100B300000E0FF252846BDE8F0872DE9F047814613
:100B40000D4616461F46FFF72DFDFFF733FD01202A
:100B5000FFF747FD0820FFF74AFD1B20FFF751FD77
:100B60004846FFF714FD2812FFF711FDE8B2FFF722
:100B70000EFD3012FFF70BFDF0B2FFF708FD09F193
:100B8000240000EB2520E9B2084400EB2620F1B256
:100B900000EB010A5046FFF73AFD4FF4FA60FFF709
:100BA0003FFD044664B194F80980E07AA17A00EB35
:100BB00001203880607B217B00EB0120788001E000
:100BC0004FF0FF084046BDE8F0872DE9F0410646AA
:100BD000FFF7E8FCFFF7EEFC0120FFF702FD032022
:100BE000FFF705FD1D20FFF70CFD21273846FFF715
:100BF0000EFD4FF4FA60FFF713FD044634B1657A39
:100C0000E07AA17A00EB0120308000E0FF25284641
:100C1000BDE8F08170B505460024FFF7C3FCFFF77F
:100C2000C9FC00BF04E03D49085DFFF7B0FC641C4F
:100C30000A2CF8DBC82001F04CF93948008800F490
:100C4000004008B337480078EF281AD1354840787B
:100C5000012816D133488079072812D1314880788D
:100C600000063049C97800EB01402E49097900EBB4
:100C700001202C494979084428600020284908802F
:100C800070BD0020264908800120F9E7014621298E
:100C90003ED2DFE801F011131517191B1D1F212388
:100CA00025273D3D3D3D292B3D3D3D2D3D3D2F31F2
:100CB0003335373D3D393B001BA02BE01BA029E01D
:100CC0001EA027E022A025E026A023E02DA021E001
:100CD00034A01FE03AA01DE047A01BE049A019E0A6
:100CE0004CA017E04FA000BF57A013E05AA011E09E
:100CF0005DA00FE065A00DE068A00BE06AA009E030
:100D00006DA007E071A005E075A003E077A001E009
:100D100079A000BF00BF70472400002028000020F9
:100D20007E000020941100204F4B0000CAFDBEDD64
:100D3000B0FCBDD3CAD5B4EDCEF30000B4ABB8D08F
:100D4000C6F7C9CFC3BBD3D0CAD6D6B800000000FF
:100D5000C2BCC8EBD6B8CEC6CDBCCFF1CAA7B0DCFA
:100D600000000000D6B8CEC6CDBCCFF1CCABB8C920
:100D7000A1A2CCABB5ADB6F8C9FAB2BBB3C9CCD859
:100D8000D5F70000D6B8CEC6CDBCCFF1CCABCAAA41
:100D9000A1A2CCABBAFDB6F8C9FAB2BBB3C9CCD8E4
:100DA000D5F70000D6B8CEC6CDBCCFF1CCABC2D201
:100DB000B6F8C9FAB2BBB3C9CCD8D5F70000000069
:100DC000D6B8CEC6CDBCCFF1D5FDB3A3A3ACB5ABE1
:100DD000CCD8D5F7B5E3CCABC9D9A3A8BBF2C3E651
:100DE000BBFDCCABD0A1A3A9B6F8C9FAB2BBB3C9BD
:100DF000CCD8D5F700000000D6B8CEC6B2BBC6A589
:100E0000C5E40000C3BBCBD1CBF7B5BDD6B8CEC6C9
:100E100000000000CCD8D5F7BACFB2A2CAA7B0DC88
:100E200000000000B7C3CECAD6B8CEC6BFE2CAB172
:100E3000B5D8D6B7D0F2BAC5B3ACB3F6D6B8CEC62D
:100E4000BFE2B7B6CEA70000C9BEB3FDC4A3B0E5EC
:100E5000CAA7B0DC00000000C7E5BFD5D6B8CEC633
:100E6000BFE2CAA7B0DC0000BBBAB3E5C7F8C4DA7A
:100E7000C3BBD3D0D3D0D0A7D4ADCABCCDBCB6F8F9
:100E8000C9FAB2BBB3C9CDBCCFF10000B6C1D0B472
:100E900020464C41534820B3F6B4ED00CEB4B6A87A
:100EA000D2E5B4EDCEF30000CEDED0A7BCC4B4E6EC
:100EB000C6F7BAC500000000BCC4B4E6C6F7C9E86E
:100EC000B6A8C4DAC8DDB4EDCEF30000BCC7CAC210
:100ED000B1BED2B3C2EBD6B8B6A8B4EDCEF3000023
:100EE000D6B8CEC6BFE2C2FA00000000B5D8D6B769
:100EF000B4EDCEF300000000C4A3BFE9B7B5BBD882
:100F0000C8B7C8CFC2EBD3D0CEF3000010B50121D3
:100F10004A4801F00AFFC8B14948008840F400403F
:100F2000474908804748008840F400404549088008
:100F30004548008840F400404349088001213F486B
:100F400001F004FF00213D4801F026FC10BD7FB5F3
:100F500005460C460121042002F0B3FAADF8045016
:100F6000ADF800400020ADF80600ADF8020069467B
:100F7000324801F0B5F801221146304801F027FC53
:100F800001212E4801F008FC1E208DF80C000020E5
:100F90008DF80D0002208DF80E0001208DF80F0055
:100FA00003A801F0FCFE7FBD10B50121880701F008
:100FB000BCFE40B10121880701F0C8FE23484088EB
:100FC000401C2249488010BD08B54FF4E06001F094
:100FD000E1FE1C208DF8000000208DF801000320A8
:100FE0008DF8020001208DF80300684601F0D7FE5D
:100FF00008BD0EB50121084602F063FAFFF7E4FFD1
:101000004FF47A70ADF804004720ADF800000020DE
:10101000ADF8020069464FF0804001F061F801210F
:10102000880701F093FE01221146900701F0CFFBE3
:101030000121880701F0B0FB0EBD00000008004050
:10104000921000207E00002094100020B01000209C
:1010500010B540F22551564802F04AFCF8B1544808
:1010600002F0C6FBC4B25348008800F40040B0B997
:1010700050480088B0F5C87F12DA00214E4801F0D0
:101080001FFE4C48008818B901214B4801F084FB31
:1010900048490888411C474A118048490C5405E0DA
:1010A0004448008840F400404249088010BD10B513
:1010B00086B004460121042002F0F6F9012148041B
:1010C00002F0FFF93A4802F053FA0420ADF8140098
:1010D00003208DF8160018208DF8170005A9384850
:1010E00001F026FF0820ADF8140048208DF8170005
:1010F00005A9344801F01CFF01940020ADF8080058
:10110000ADF80A00ADF80C00ADF810000C20ADF8F9
:101110000E0001A9264802F06EFA0121244802F0CF
:10112000F6FA012240F22551214802F0FCFA26206D
:101130008DF8000002208DF8010006208DF80200D5
:1011400001208DF80300684601F029FE41F61F4199
:101150006320FFF7FCFE0020164908800021164896
:1011600001F01AFB06B010BD0FB438B505A8009009
:101170001548009A049902F01FFC002000901248C4
:1011800002F03EFC85B200240DE000BF402108487B
:1011900002F098FB0028F9D00B48015D044802F0EA
:1011A00023FB601C84B2AC42EFDB38BC5DF814FB5F
:1011B000004400407E000020000800409411002000
:1011C00000080140000C01402413002010B5002845
:1011D00007DA0A07140EFE4A00F00F031B1FD4544F
:1011E00003E00A07130EFB4A135410BD10B5FA486A
:1011F0000088401CF8490880F8480088401CF749DE
:101200000880F7480088401CF5490880F5480088A8
:1012100020B1F4480088401EF2490880F248008856
:10122000401C80B2F0490880B0F57A7F20DB0020B6
:101230000880EE480078D8B102F0A7FBEC480068BF
:10124000401CEB490860052812D90020086000BF47
:10125000DF480C38006800F4E060E6490843001DF0
:10126000DB490C390860BFF34F8F00BF00BFFEE7BA
:1012700010BD00EB800100BF0A1EA1F10101FBD1EE
:10128000704708E0002100E0491C41F2A4029142AD
:10129000FAD3421E90B20028F4DC704705E011F842
:1012A000013B00F8013B531EDAB2002AF7DC70471D
:1012B00030B5034609E013F8014B11F8015BAC426D
:1012C00001D0002030BD501EC2B2002AF3DC012044
:1012D000F8E7411CC34A118000BFC24909880029B0
:1012E000FBD1704710B5042001F0A3FDC24800688F
:1012F0004FF47A71B0FBF1F4B4F1807F01D3012097
:1013000011E024F07F40401E4FF0E02148610F21A2
:101310004FF0FF30FFF75AFF00204FF0E0218861C7
:1013200007200861002008B100BFFEE70021481E29
:10133000FFF74CFF10BD10B5FFF7D4FF0020A74901
:101340000880A54908800120AC49087010BD10B57F
:10135000044645F2555002F00FFB042002F00FFB4B
:10136000204602F00FFB02F010FB02F013FB10BD51
:1013700000209F490860704770477047704770476A
:1013800010B502460B460021002400BF04E0505C6B
:101390002044C4B2481CC1B29942F8DBE043C0B259
:1013A00010BD2DE9FE4306460F4690461C4600251B
:1013B0000020009001900290AA208DF800008DF886
:1013C00001608DF802708DF8038020788DF804009C
:1013D00060788DF80500A0788DF806000721684632
:1013E000FFF7CEFF8DF8070055208DF8080000BFED
:1013F00006E01DF80510824802F0F6F9681CC5B237
:10140000082DF6DBBDE8FE832DE9FC4100200090AD
:101410000190AA208DF8000000276946794802F063
:10142000DDFA044614B9781EBDE8FC81E078032893
:1014300019D16078FF286FD1A078FF286CDB607F1E
:101440005528F8D1002604E0A05D3844C7B2701CCE
:10145000C6B21B2EF8DB002FEDD10120674981F8C1
:10146000E0000020E0E76078012855DB6078042880
:101470007EDCA078012802DBA078082802DDA078B5
:10148000FF2875D1E078022872D1607F55286FD18E
:10149000002604E0A05D3844C7B2701CC6B21B2E03
:1014A000F8DB002F64D1A078FF2836D1002530E08A
:1014B00005EB4501201D415C6078401E00EB4002B9
:1014C0004E48803000EBC20005EB4502815405EB2D
:1014D0004501601D415C6078401E00EB40024748BA
:1014E000803000EBC20005EB45021044417005EB73
:1014F0004501A01D415C6078401E00EB40023F4862
:10150000803000EBC20005EB450210448170681C7E
:10151000C5B2082DCCDB29E02AE021796078401E95
:1015200000EB40023548803000EBC200A27802EBAD
:101530004202815461796078401E00EB40022F48DE
:10154000803000EBC200A27802EB420210444170EE
:10155000A1796078401E00EB40022848803000EB03
:10156000C200A27802EB42021044817000205BE7C7
:101570004FF0FF3058E710B52348008800F40040D2
:1015800008B1FFF741FF10BD2DE9FC41002000909C
:101590000190AA208DF80000002769461B4802F040
:1015A0001DFA044614B9781EBDE8FC816078012854
:1015B00073DB6078042870DCA078012802DBA07857
:1015C000082802DDA078FF2867D1E07801281FE015
:1015D00018ED00E000E400E0080000200A00002010
:1015E0000C000020881000208C100020000000203B
:1015F000040000200000FA0510000020B0100020B8
:1016000000480040B414002094100020D41700209B
:101610006CD1607F552869D1002604E0A05D384474
:10162000C7B2701CC6B21B2EF8DB002F5ED1A078AB
:10163000FF2833D100252DE005EB4501201D415C3D
:101640006078401E00EB4002FA4800EBC20005EB58
:101650004502815405EB4501601D415C6078401EE8
:1016600000EB4002F34800EBC20005EB45021044DA
:10167000417005EB4501A01D415C6078401E00EB08
:101680004002EC4800EBC20005EB450210448170BB
:10169000681CC5B2082DCFDB26E027E021796078F1
:1016A000401E00EB4002E34800EBC200A27802EBD0
:1016B0004202815461796078401E00EB4002DD48AF
:1016C00000EBC200A27802EB420210444170A17903
:1016D0006078401E00EB4002D64800EBC200A278C2
:1016E00002EB42021044817000205DE74FF0FF30B2
:1016F0005AE708B500200090CE482038C07D10B1D0
:10170000022846D10EE06B460022FF21CA4800782D
:10171000FFF747FE0220C7492039C87540F6B830A8
:10172000088337E0C3482038008BA8B9C248007846
:10173000401EC049203988760846807E40F010005F
:10174000BE490870FF20BE4908700220B9492039FF
:1017500088750020C8751BE0BA48008800F4004076
:10176000B0B1FFF711FF98B9B3480078042809D049
:10177000B1480078401CB04908700020AD492039BC
:10178000088305E00220AB49203988750020C87520
:1017900000E000BF00BF08BD70B5B2B005460E4600
:1017A000682118A802F07DF96022A249684602F07B
:1017B00046F960229F4901F1600002F040F9AA2039
:1017C0008DF860008DF861508DF8626011208DF801
:1017D0006300002406E01DF80410201D18AA11540F
:1017E000601CC4B2602CF6DB642118A8FFF7C8FDAA
:1017F0008DF8C40055208DF8C50032B070BD10B50D
:101800008C482038807D20B1012822D002281FD1A9
:1018100006E088482038808B08B9FFF76AFF19E096
:101820008448203890F8E000012810D18148203801
:10183000807E40F0100081490870814801787F481F
:101840000078FFF7A9FF01207A492039887501E067
:1018500000BF00BF00BF10BD7B48007820B1012849
:1018600078D002286FD1CEE07848007800EB4001B4
:101870007048603000EBC1007549097801EB410107
:10188000084481787148007800EB4002694800EB19
:10189000C2006F4A127802EB420210448078814203
:1018A00039D16A48007800EB40016248603000EBB3
:1018B000C1006749097801EB410108448178634818
:1018C000007800EB40025B4800EBC200604A1278EF
:1018D00002EB42021044807881421CD15B480078C0
:1018E00000EB40015348603000EBC10058490978D3
:1018F00001EB4101084481785448007800EB400234
:101900004C4800EBC200524A127802EB42021044EB
:101910008078814203D001204B49087019E04C487F
:101920000078072810D149480078401C47490870C2
:1019300008460078042801D100200870002044499E
:10194000087006E006E066E041480078401C404927
:10195000087061E03D48007800EB4001354800EB3D
:10196000C1003B49097801EB4101084481783748BF
:10197000007800EB40022F48603000EBC200344A90
:10198000127802EB4202104481703048007800EB7C
:101990004001284800EBC1002D49097801EB4101C5
:1019A000084481782948007800EB400221486030E3
:1019B00000EBC200264A127802EB4202104481700A
:1019C0002248007800EB40011A4800EBC100204992
:1019D000097801EB4101084481781C48007800EB4C
:1019E00040021448603000EBC200194A127802EB42
:1019F00042021044817032200E492039C8830220EF
:101A00001149087008E00B482038C08B10B900203D
:101A10000D49087000E000BF00BF704710B5FFF728
:101A2000AEFCFFF7ECFEFFF7A6FDFFF715FFFFF793
:101A3000A5FC10BDD01000208E1000208A100020C0
:101A40008B10002094100020911000209010002096
:101A50008F1000200020064908754875886048806E
:101A60008875C87581F8E00040F6B8308883704703
:101A7000B010002010B540F22551544801F038FF55
:101A800018B3524801F0B4FEC4B221464F4801F0E9
:101A9000ABFE4F48008800F40040B0B94C480088C5
:101AA000B0F5C87F12DA00214A4801F009F9484828
:101AB000008818B90121474800F06EFE44490888A3
:101AC000411C434A118044490C5405E040480088B9
:101AD00040F400403E49088010BD10B586B0044671
:101AE0000121042001F0E0FC012144F2010001F099
:101AF000DBFC364801F03CFD4FF40070ADF81400FB
:101B000003208DF8160018208DF8170005A933481A
:101B100001F00EFA4FF48060ADF8140048208DF803
:101B2000170005A92D4801F003FA01940020ADF833
:101B30000800ADF80A00ADF80C00ADF810000C205C
:101B4000ADF80E0001A9214801F055FD01211F4803
:101B500001F0DDFD012240F225511C4801F0E3FDBA
:101B600025208DF8000003208DF8010007208DF856
:101B7000020001208DF80300684601F010F906B05C
:101B800010BD0FB438B505A800901548009A049907
:101B900001F012FF00200090114801F031FF85B2E2
:101BA00000240DE000BF4021084801F08BFE002812
:101BB000F9D00B48015D054801F016FE601C84B2A7
:101BC000AC42EFDB38BC5DF814FB0000003801408C
:101BD0009210002000080040B414002000080140CA
:101BE0004416002010B540F22551504801F080FE07
:101BF000F8B14E4801F0FCFDC4B24D48008800F435
:101C00000040B0B94A480088B0F5C87F12DA002118
:101C1000484801F055F84648008818B90121454860
:101C200000F0BAFD42490888411C414A11804249EE
:101C30000C5405E03E48008840F400403C490880D0
:101C400010BD10B586B004460121880401F039FCAE
:101C50000121092001F028FC4FF48060ADF8140048
:101C600003208DF8160018208DF8170005A93348B9
:101C700001F05EF94FF40060ADF8140048208DF8D3
:101C8000170005A92D4801F053F901940020ADF883
:101C90000800ADF80A00ADF80C00ADF810000C20FB
:101CA000ADF80E0001A9214801F0A5FC01211F4853
:101CB00001F02DFD012240F225511C4801F033FDB9
:101CC00027208DF8000003208DF8010005208DF8F5
:101CD000020001208DF80300684601F060F806B0AC
:101CE00010BD0FB438B505A800901548009A0499A6
:101CF00001F062FE00200090114801F081FE85B2E3
:101D000000240DE000BF4021084801F0DBFD002861
:101D1000F9D00B48015D054801F066FD601C84B2F6
:101D2000AC42EFDB38BC5DF814FB0000004800401B
:101D30009410002000080040D4170020000C01403F
:101D40006419002008B50121022001F0BAFB01212D
:101D50000C2001F0A9FB4020ADF8000018208DF800
:101D6000030003208DF802006946384801F0E0F8CE
:101D70008020ADF800006946344801F0D9F8012010
:101D8000ADF800006946324801F0D2F80220ADF803
:101D9000000069462E4801F0CBF808BDF0B587B0C9
:101DA0004FF4FA7740F27714FA257D2640F2E730B7
:101DB000ADF814000020ADF81000ADF81600ADF835
:101DC000120004A9234800F08BF96020ADF8000050
:101DD0000120ADF80200ADF806700020ADF8080053
:101DE00069461C4800F0B9F908211A4800F004FEC1
:101DF000ADF806406946174800F0F1F9082115488A
:101E000000F003FEADF806506946124800F034FABF
:101E10000821104800F006FEADF8066069460D483E
:101E200000F075FA08210B4800F005FE0121094871
:101E300000F0B2FD0121074800F0AEFC07B0F0BD94
:101E400010B5FFF77FFFFFF7A9FF10BD00080140A5
:101E5000000C01400004004010B56FF0040000F0D9
:101E6000E8FF2E4800682E49B0FBF1F02D490870BC
:101E70000846007800EB4001C1EBC0104FF6FF713F
:101E800001EAC0002849088010BD0146254A1278A1
:101E90004A434FF0E0235A6100229A611A461269C0
:101EA00042F001021A6100BF4FF0E022106900F019
:101EB00001021AB100F48032002AF5D04FF0E0227E
:101EC000126922F001024FF0E0231A6100229A61A8
:101ED00070470146144A12884A434FF0E0235A6182
:101EE00000229A611A46126942F001021A6100BF8B
:101EF0004FF0E022106900F001021AB100F48032C4
:101F0000002AF5D04FF0E022126922F001024FF0D2
:101F1000E0231A6100229A6170470000100000203F
:101F200000127A00961000209810002010B54FF48F
:101F3000A06000F02FFF10BD10B50446FE4884429B
:101F400008D10121C01401F0C9FA0021E01401F008
:101F5000C5FAC4E0B4F1804F08D10121084601F070
:101F6000CAFA0021012001F0C6FAB8E0F348844221
:101F700008D10121022001F0BEFA0021022001F067
:101F8000BAFAACE0EE48844208D10121042001F005
:101F9000B2FA0021042001F0AEFAA0E0E948844240
:101FA00008D10121082001F0A6FA0021082001F043
:101FB000A2FA94E0E448844208D10121102001F003
:101FC0009AFA0021102001F096FA88E0DF48844256
:101FD00008D10121202001F08EFA0021202001F0FB
:101FE0008AFA7CE0DA48844208D10121401401F0E9
:101FF00075FA0021601401F071FA70E0D54884424E
:1020000009D10121C80401F069FA00214FF4002030
:1020100001F064FA63E0D048844209D10121080547
:1020200001F05CFA00214FF4801001F057FA56E0FD
:10203000CA48844209D10121480501F04FFA002124
:102040004FF4001001F04AFA49E0C548844208D133
:102050000121402001F04FFA0021402001F04BFA0D
:102060003DE0C048844208D10121802001F043FABC
:102070000021802001F03FFA31E0BB48844208D1C2
:102080000121801501F037FA0021A01501F033FA83
:1020900025E0B648844209D10121080401F01EFA66
:1020A00000214FF4803001F019FA18E0B048844262
:1020B00009D10121480401F011FA00214FF4003048
:1020C00001F00CFA0BE0AB48844208D101218804EE
:1020D00001F004FA00214FF4802001F0FFF910BD57
:1020E00000220288944B98420ED0994B98420BD014
:1020F000B0F1804F08D0914B984205D0904B984258
:1021000002D0904B984204D14FF68F731A404B88FF
:102110001A438D4B984207D08C4B984204D04FF60F
:10212000FF431A40CB881A4302808B8883850B8833
:102130000385814B98420BD0854B984208D08B4B3E
:10214000984205D08A4B984202D08A4B984201D1DE
:102150000B7A038601238382704770B50024002226
:102160000023058C4FF6FE7635400584028C83886B
:10217000048B4FF68F752C40B51E2C400D882C43D8
:10218000751E2A400D892A434D882A436A4DA8426C
:102190000BD06F4DA84208D0744DA84205D0744DA5
:1021A000A84202D0734DA84213D14FF6F7752A40CA
:1021B0004D892A434FF6FB752A408D882A434FF6F6
:1021C000FF652B404FF6FF552B408D892B43CD8962
:1021D0002B4383800483CD888586028470BD70B5CF
:1021E000002400220023058C4FF6EF76354005844D
:1021F000028C8388048B48F6FF752C404FF6FF4510
:102200002C400D884FF6FF7606EA05252C434FF645
:10221000DF752A400D8906EA05152A434D8806EA2E
:1022200005152A43444DA84202D0494DA8421DD16C
:102230004FF67F752A404D894FF6FF7606EA051561
:102240002A434FF6BF752A408D8806EA05152A43B2
:102250004FF6FF352B404FF2FF752B408D8906EA74
:1022600085052B43CD8906EA85052B4383800483AE
:10227000CD880587028470BD70B50024002200233C
:10228000058C4FF6FF6635400584028C8388848B6D
:102290004FF68F752C404FF6FC752C400D882C4363
:1022A0004FF6FF552A400D894FF6FF7606EA0525C1
:1022B0002A434D8806EA05252A431F4DA84202D02D
:1022C000234DA8421DD14FF2FF752A404D894FF68C
:1022D000FF7606EA05252A434FF6FF352A408D880A
:1022E00006EA05252A434EF6FF752B404DF6FF758D
:1022F0002B408D8906EA05152B43CD8906EA051585
:102300002B4383808483CD888587028470BD70B51C
:10231000002200230024058C4EF6FF76354005840C
:10232000038C8488828B48F6FF752A404FF6FF4560
:102330002A400D8820E00000002C014000040040ED
:1023400000080040000C0040001000400014004055
:1023500000340140004C0140005001400054014055
:1023600000180040001C00400020004000400140D8
:1023700000440140004801404FF6FF7606EA05257B
:102380002A434DF6FF752B400D8906EA05352B4390
:102390004D8806EA05352B43FA4DA84202D0FA4D86
:1023A000A84208D14BF6FF752C408D894FF6FF7679
:1023B00006EA85152C4384808283CD88A0F840509E
:1023C000038470BD828B4FF2FF331A408283828B6D
:1023D0004FF6FF7303EA01231A4382837047F0B577
:1023E0000C461546002200210026078C4EF6FF7C85
:1023F00007EA0C070784828B018C4FF6FF7707EA08
:10240000043640F6FF473A404FF6FF7707EA0527C4
:102410003A434FF6FF7707EA03373A43D94FB842BA
:102420000ED0D94FB8420BD0B0F1804F08D0D74F63
:10243000B84205D0D64FB84202D0D64FB84206D1E6
:102440004DF6FF77394046F48057394305E047F6AB
:10245000FF57394044F48057394382830184F0BDEB
:10246000828B4FF6F3731A408283828B0A438283F6
:102470007047F0B50C461546002200210026078C57
:102480004FF6FF6C07EA0C070784828B018C4FF62E
:10249000FF7707EA04264FF60C773A404FF6FF77AE
:1024A00007EA03172F433A43B64FB8420ED0B64F50
:1024B000B8420BD0B0F1804F08D0B44FB84205D02D
:1024C000B34FB84202D0B34FB84206D14FF6FF57D0
:1024D000394046F48077394305E04FF2FF573940E1
:1024E00044F48077394382830184F0BD028B4FF23C
:1024F000FF331A400283028B4FF6FF7303EA012376
:102500001A4302837047F0B50C461546002200219D
:102510000026078C4FF6EF7C07EA0C070784028B36
:10252000018C4FF6FF7707EA041640F6FF473A4062
:102530004FF6FF7707EA03373A434FF6FF7707EA8C
:1025400005273A438F4FB8420ED08F4FB8420BD079
:10255000B0F1804F08D08D4FB84205D08C4FB842B3
:1025600002D08C4FB84206D14FF6DF77394046F0A3
:102570001007394305E04FF65F77394044F0100704
:10258000394302830184F0BD028B4FF6F3731A4086
:102590000283028B0A4302837047F0B50C4615464E
:1025A00000220021068C4FF6FE773E400684028B07
:1025B000018C4FF60C7632407E1C06EA03162E4341
:1025C0003243704EB0420ED06F4EB0420BD0B0F1DD
:1025D000804F08D06D4EB04205D06D4EB04202D053
:1025E0006C4EB04206D14FF6FD76314044F0010604
:1025F000314305E04FF6F576314044F001063143B2
:1026000002830184F0BD70B505460C465D488542E5
:102610000ED05D4885420BD0B5F1804F08D05B48A5
:10262000854205D05A48854202D05A48854200D199
:1026300000E000BF208850B92389A288618828461D
:10264000FFF7ABFFE1882846FFF79EFF25E02088D3
:1026500004280AD12389A28861882846FFF753FFFE
:10266000E1882846FFF742FF17E0208808280AD1B2
:102670002389A28861882846FFF7FBFEE188284667
:10268000FFF7EEFE09E02389A28861882846FFF75C
:10269000A6FEE1882846FFF795FE70BD2DE9F041C2
:1026A00005460C4600260127608808B9022600E08E
:1026B0000026A088012801D1022700E001272088F8
:1026C000A0B92389A28861882846FFF766FFE188C0
:1026D0002846FFF759FF23893A4631462846FFF737
:1026E00012FFE1882846FFF701FF13E02389A28843
:1026F00061882846FFF707FFE1882846FFF7F6FEC6
:1027000023893A4631462846FFF747FFE1882846A5
:10271000FFF73AFFBDE8F0810A884B881A438B889F
:102720001A43CB881A430B891A434B891A438B8966
:102730001A43A0F8442070474FF6FF7181800021B2
:102740000180C18041800172704700210180418079
:102750008180C180018141818181C18170470021D7
:1027600001804180012181800021C1800181704769
:102770000021018041808180C1800181418181816E
:1027800070470000002C014000340140000400406C
:1027900000080040000C004021B1028842F0010214
:1027A000028004E002884FF6FE731A4002807047F0
:1027B00031B1B0F8442042F40042A0F8442005E0D2
:1027C000B0F84420C2F30E02A0F8442070471AB1BA
:1027D00083890B43838102E083898B438381704724
:1027E0008182704741EA0203A0F8483070471AB16D
:1027F00083890B43838102E083898B438381704704
:1028000001894FF6F8721140018170470A46002194
:1028100001894FF68F73194011430181704730B51C
:1028200004460D4629462046FFF7F0FF208940F078
:102830000700208130BD2DE9F04104460D461646C3
:102840001F46602D06D13B46012231462046FFF748
:102850005AFE05E03B46012231462046FFF79DFE29
:1028600029462046FFF7D2FF208940F0070020814B
:10287000BDE8F08130B50C4600210189C9B24FF6A0
:10288000FF7505EA0325154325432943018130BD22
:102890002DE9F04105460E4617469846002443466A
:1028A0003A4631462846FFF7E5FF2C894FF6F87087
:1028B000044044F007044FF68F70044044F0700465
:1028C0002C81BDE8F081F0B504460D4616461F4642
:1028D0003B46324629462046FFF7CCFF208940F48C
:1028E00080402081F0BD0185828270470A46002128
:1028F00001884FF68F731940114301807047F0B57E
:102900000C4615461E460021002200230189028B39
:10291000038C4FF6F877394021434FF6FC473A4095
:1029200040F201173A434FF6DD773B404FF6FF7711
:1029300007EA06172F433B43018102830384F0BD5E
:102940000A460021018B4FF68F7319401143018312
:1029500070470A460021018B48F6FF7319404FF675
:10296000FF7303EA02231943018370470A460021DB
:10297000818B4FF68F7319401143818370470A464C
:102980000021818B48F6FF7319404FF6FF7303EA6D
:10299000022319438183704721B1028842F08002EB
:1029A000028004E002884FF67F731A40028070476D
:1029B00021B1828842F00402828004E082884FF6CE
:1029C000FB731A408280704721B1828842F008026E
:1029D000828004E082884FF6F7731A408280704745
:1029E00021B1828842F00102828004E082884FF6A1
:1029F000FE731A40828070470A460021018B4FF611
:102A0000F77319401143018370470A460021018B77
:102A10004FF2FF7319404FF6FF7303EA0223194385
:102A2000018370470A460021818B4FF6F7731940E6
:102A30001143818370470A460021818B4FF2FF7357
:102A400019404FF6FF7303EA02231943818370474D
:102A50000A460021018B4FF6FB7319401143018395
:102A600070470A460021018B4FF6FF3319404FF69D
:102A7000FF7303EA02231943018370470A460021CA
:102A8000818B4FF6FB7319401143818370470A46CF
:102A90000021818B4FF6FF3319404FF6FF7303EA95
:102AA00002231943818370470A460021018B4FF6A8
:102AB0007F7319401143018370470A460021018B3F
:102AC000C1F30E014FF6FF7303EA0223194301839A
:102AD00070470A460021818B4FF67F7319401143DE
:102AE000818370470A460021818BC1F30E014FF6A6
:102AF000FF7303EA02231943818370470A460021CA
:102B0000018C4FF6FD7319401143018470470A464A
:102B10000021018C4FF6F77319401143018470476F
:102B20000A460021018C4FF6DF7319404FF6FF7300
:102B300003EA02131943018470470A460021018CFD
:102B40004FF67F7319404FF6FF7303EA02131943E0
:102B5000018470470A460021018C4FF6FF5319404B
:102B60004FF6FF7303EA02231943018470470A46B4
:102B70000021018C4FF2FF7319404FF6FF7303EAF7
:102B800002231943018470470A460021018C4DF647
:102B9000FF7319404FF6FF7303EA023319430184B0
:102BA000704730B5002301248C40A3B2048C9C43B1
:102BB0000484048C02FA01F5ADB22C43048430BDC8
:102BC00030B5002304248C40A3B2048C9C430484BD
:102BD000048C02FA01F5ADB22C43048430BD70B50B
:102BE0000346002000241846183001258D40ACB261
:102BF0001D8CA5431D8409B1082909D100EB610092
:102C0000056825F0700505600568154305600EE050
:102C10000D1FC5F34E052844056825F4E045056001
:102C200005684FF6FF7606EA02263543056070BD5B
:102C300021B1028842F00202028004E002884FF6CD
:102C4000FD731A400280704721B1028842F00402ED
:102C5000028004E002884FF6FB731A40028070473E
:102C600021B1828842F08002828004E082884FF69F
:102C70007F731A408280704702884FF6F7731A40BC
:102C8000028002880A430280704782884FF68F7361
:102C90001A40828082880A438280704702894FF6F8
:102CA000F8731A40028102890A430281704702893F
:102CB0004FF67F731A40028102890A4302817047EE
:102CC000818470478185704781867047018770478E
:102CD00081877047A0F84010704702884FF6FF4385
:102CE0001A40028002880A43028070470146888E9B
:102CF00070470146088F70470146888F704701462C
:102D0000B1F8400070470146888C70470146088D35
:102D1000704702460020138A0B400BB1012000E0EF
:102D200000207047CA430282704730B50246002037
:102D300000230024158A05EA0103958905EA0104A8
:102D400013B10CB1012000E0002030BDCA43028263
:102D5000704700000948804709480047FEE7FEE742
:102D6000FEE7FEE7FEE7FEE7FEE7FEE7FEE7FEE73B
:102D700004480549054A064B7047000067040008EF
:102D8000ED000008581B002058210020581D00208D
:102D9000581D002031490143314A1160704770B518
:102DA000002100230F22C47804B32D4C246804F4BE
:102DB000E064C4F5E064210AC1F10403CA40447828
:102DC00004FA03F18478144021430901254C067864
:102DD000A155047804F01F050124AC4005786D115D
:102DE000AD0005F1E025C5F8004109E0047804F0E4
:102DF0001F050124AC401C4D0678761145F826408D
:102E000070BD1A4A0A400243154B1B1F1A607047D7
:102E100039B1134A121D12680243114B1B1D1A606F
:102E200006E00F4A121D126882430D4B1B1D1A60EB
:102E30007047042808D14FF0E021096941F00401EE
:102E40004FF0E022116107E04FF0E021096921F025
:102E500004014FF0E0221161704700000000FA0504
:102E60000CED00E000E400E080E100E080FFFF1FE7
:102E700010B50446CC48844208D10121042000F05A
:102E80002DFB0021042000F029FB46E0C7488442C6
:102E900008D10121082000F021FB0021082000F0CA
:102EA0001DFB3AE0C248844208D10121102000F005
:102EB00015FB0021102000F011FB2EE0BD488442DC
:102EC00008D10121202000F009FB0021202000F082
:102ED00005FB22E0B848844208D10121402000F0DF
:102EE000FDFA0021402000F0F9FA16E0B3488442D0
:102EF00008D10121802000F0F1FA0021802000F0AB
:102F0000EDFA0AE0AE48844207D10121801500F0B5
:102F1000E5FA0021A01500F0E1FA10BD10B501217D
:102F2000084600F0DBFA0021012000F0D7FA10BDBE
:102F30002DE9F04102460025002600200023002450
:102F4000002791F803C00CF00F0591F803C00CF0B6
:102F5000100CBCF1000F03D091F802C04CEA05053B
:102F600091F800C0BCF1000F31D0146800202BE0B4
:102F70004FF0010C0CFA00F3B1F800C00CEA0306A4
:102F80009E4220D183004FF00F0C0CFA03F7BC4394
:102F900005FA03FC4CEA040491F803C0BCF1280FC5
:102FA00006D14FF0010C0CFA00FCC2F814C00AE084
:102FB00091F803C0BCF1480F05D14FF0010C0CFA99
:102FC00000FCC2F810C0401C0828D1D31460B1F82E
:102FD00000C0BCF1FF0F34DD546800202EE000F18A
:102FE000080C4FF0010808FA0CF3B1F800C00CEA25
:102FF00003069E4221D183004FF00F0C0CFA03F719
:10300000BC4305FA03FC4CEA040491F803C0BCF18C
:10301000280F05D100F1080C08FA0CF8C2F814804A
:1030200091F803C0BCF1480F07D100F1080C4FF034
:10303000010808FA0CF8C2F81080401C0828CED30A
:103040005460BDE8F0814FF6FF710180022181706C
:103050000421C17070470246002093680B400BB1F9
:10306000012000E0002070470146886880B2704768
:1030700002460020D3680B400BB1012000E0002085
:1030800070470146C86880B270470161704741616E
:1030900070470AB1016100E041617047C16070474B
:1030A0004FF480320A438261816182618269826960
:1030B000704702460020434B18684FF68073184053
:1030C00040EA021008433F4B186070473E49C86110
:1030D0007047F0B50A46002300240021002500F0C7
:1030E0000046B6F1004F02D1364EF16901E0354E8F
:1030F0007168C0F3034583B200F44016B6F5401F73
:1031000008D121F070612F4E766826F070662D4F41
:103110007E6012E000F48016B6F5801F06D103260B
:1031200006FA05F4A14341F0706106E0460D360150
:1031300003FA06F6B14341F0706122B1460D360143
:1031400003FA06F6314300F00046B6F1004F02D113
:103150001C4EF16101E01B4E7160F0BD30B50022E4
:103160008B071C0F0F2303FA04F2164B08338C1045
:1031700053F824309343134C08348D1044F8253011
:1031800023468C1053F824308C07240F00FA04F4E3
:1031900023430C4C08348D1044F8253030BD0A49C7
:1031A000DC3108607047000000080140000C01405D
:1031B000001001400014014000180140001C0140B3
:1031C000002001400000014000002042DF4800686C
:1031D00040F00100DD49086008464068DC490840CD
:1031E000DA49486008460068DA490840D74908606B
:1031F0000846006820F4802008600846406820F4F3
:10320000FE0048604FF41F0088607047CF4909688E
:1032100021F48031CD4A11601146096821F48021E2
:103220001160B0F5803F03D0B0F5802F0ED106E0DD
:10323000C649096841F48031C44A116007E0C349B6
:10324000096841F4A021C14A116000E000BF00BF3D
:10325000704710B501460022002300204A11012AC0
:1032600002D1BA4C236806E0022A02D1B74C236A85
:1032700001E0B64C636A01F01F02012494401C4037
:103280000CB1012000E0002010BD38B500200090F6
:103290000024002500BF3120FFF7DBFF0546009822
:1032A000401C00900098B0F5A06F01D0002DF2D026
:1032B0003120FFF7CEFF08B1012400E000242046B2
:1032C00038BD01460020A14A106820F0F80040EA0D
:1032D000C10010607047A049086070470246002096
:1032E0009A4B586820F47C1042EA01031843974B2C
:1032F0005860704798490866704701460020934A15
:10330000506820F003000843506070478F484068C1
:1033100000F00C007047014600208C4A506820F0F5
:10332000F00008435060704701460020874A50680B
:1033300020F4E06008435060704701460020834A53
:10334000506820F4605040EAC1005060704729B1D5
:103350007E4A527A02437D4B5A7204E07B4A527A8B
:1033600082437A4B5A7270477B49D8310860704764
:1033700001460020754A506820F4404008435060E0
:1033800070470021714A20321170704A82F8201073
:10339000012802D004280AD104E001216B4A20321E
:1033A000117005E00521694A2032117000E000BF6C
:1033B00000BF70476949086070476449096A014362
:1033C000624A11627047654944390860704730B5F8
:1033D00000210022002400235C4D6D6805F00C01E3
:1033E00021B1042905D0082923D105E05C4D0560F1
:1033F00022E05B4D05601FE0544D6D6805F47012CE
:10340000524D6D6805F48034022505EB92421CB9DB
:10341000544D554305600BE04C4D6D6805F4003587
:103420001DB1504D5543056002E04D4D55430560BB
:1034300002E04B4D056000BF00BF444D6D6805F0D4
:10344000F0010909484D6B5C0568DD4045603F4D62
:103450006D6805F4E061090A434D6B5C4568DD4029
:1034600085603A4D6D6805F46051C90A3E4D6B5C4C
:103470004568DD40C560354D6D6805F44041890BF8
:103480003A4D6B5CC568B5FBF3F5056130BD29B1FC
:103490002E4A526902432D4B5A6104E02B4A52696D
:1034A00082432A4B5A61704729B1284A92690243E4
:1034B000264B9A6104E0254A92698243234B9A6124
:1034C000704729B1214AD2690243204BDA6104E0F6
:1034D0001E4AD26982431D4BDA61704729B11B4AEB
:1034E000D2680243194BDA6004E0184AD26882437A
:1034F000164BDA60704729B1144A12690243134B24
:103500001A6104E0114A12698243104B1A61704734
:1035100012494039086070470F49C86470470B4929
:10352000C87170470948406A40F080700749486296
:10353000704701460020054A92680A400AB10120FE
:1035400000E0002070470149887270470010024077
:103550000000FFF8FFFFF6FE0000424280044242F6
:1035600000127A0000093D009A100020AA100020E5
:1035700010B50446FB48844209D101218803FFF7B6
:10358000ADFF00214FF48040FFF7A8FF32E0F6487E
:10359000844209D101214804FFF7ADFF00214FF417
:1035A0000030FFF7A8FF25E0F048844209D101214F
:1035B0008804FFF7A0FF00214FF48020FFF79BFF56
:1035C00018E0EB48844209D10121C804FFF793FFBA
:1035D00000214FF40020FFF78EFF0BE0E548844206
:1035E00008D101210805FFF786FF00214FF4801064
:1035F000FFF781FF10BD2DE9F04786B005460E4666
:103600000024A24600BFA1460027B08900B100BF38
:103610002F462C8A4CF6FF700440F08804432C821D
:10362000AC894EF6F3100440B088318908437189A3
:1036300008430443AC81AC8A4FF6FF400440B08994
:103640000443AC8201A8FFF7C2FEC648874202D1FC
:10365000DDF810A001E0DDF80CA0A88900F400401E
:1036600040B10AEBCA0000EB0A1031684900B0FB18
:10367000F1F807E00AEBCA0000EB0A103168890094
:10368000B0FBF1F86420B8FBF0F0040120096421DC
:1036900001FB1089A88900F4004040B1322000EB02
:1036A000C900B0FBF1F000F00700044308E032204D
:1036B00000EB09106421B0FBF1F000F00F000443AF
:1036C0002C8106B0BDE8F0874FF41651016000214F
:1036D0008180C18001810C2141810021818170475D
:1036E00010B502460020108A4FF2FF0318400B88E5
:1036F0004C8823438C882343CC882343184310826F
:1037000010BD0021018041808180C180704721B1BE
:10371000828942F40052828104E082894DF6FF736F
:103720001A4082817047F0B5034600240026002528
:10373000002040F66A17B94200D100BF1846C1F315
:10374000421401F01F06012707FA06F5012C01D1EA
:103750000C3004E0022C01D1103000E014301AB11A
:1037600007682F43076002E00768AF430760F0BDBA
:103770001AB1838A0B43838202E0838A8B4383825C
:103780007047028A4FF6F0731A400282028A0A4397
:103790000282704782894FF2FF731A4082818289C8
:1037A0000A438281704721B1828942F002028281FC
:1037B00004E082894FF6FD731A4082817047028AC5
:1037C0004FF6DF731A400282028A0A430282704770
:1037D00021B1028A42F48042028204E0028A4BF65E
:1037E000FF731A4002827047C1F30802828070475B
:1037F00001468888C0F308007047818941F00101C3
:1038000081817047028BD2B20283028B42EA01228D
:1038100002837047028B02F47F420283028B0A43C9
:103820000283704721B1828A42F02002828204E042
:10383000828A4FF6DF731A408282704721B1828AF2
:1038400042F01002828204E0828A4FF6EF731A403F
:103850008282704721B1828A42F00802828204E0AB
:10386000828A4FF6F7731A408282704721B18289AB
:1038700042F40042828103E08289C2F30E02828117
:10388000704721B1828A42F40062828204E0828A17
:103890004FF2FF731A4082827047828A4FF6FB73A1
:1038A0001A408282828A0A438282704721B1828AC8
:1038B00042F00202828204E0828A4FF6FD731A40CF
:1038C0008282704702460020B1F5007F00D100BF20
:1038D00013880B400BB1012000E00020704701F479
:1038E0000072B2F5007F00D100BFCA43028070476A
:1038F00070B50246002400230025002040F66A1619
:10390000B14200D100BFC1F3421501F01F030126EF
:1039100006FA03F3012D02D19689334006E0022D09
:1039200002D1168A334001E0968A33400C120126F8
:1039300006FA04F41688344013B10CB1012000E0FB
:10394000002070BD10B50022002340F66A14A14289
:1039500000D100BF0A1201249440A3B2DC430480CA
:1039600010BD000000380140004400400048004005
:10397000004C0040005000400E49086070470D495F
:10398000486070470B49886070474AF6AA20094989
:10399000086070474CF6CC40064908607047014605
:1039A0000020044AD2680A400AB1012000E0002049
:1039B00070470000003000401CB50C46064B7B44AD
:1039C00069460090204600F04EF904460020694602
:1039D00000F05CF920461CBDCB02000030B5054666
:1039E0000B462A4613F8014B12F8010B08B1A0420E
:1039F000F8D01CB1002802D06D1CF1E7284630BD7C
:103A000010B5431C02E010F8011B71B18107FAD117
:103A10004FF0013202C88C1A8C4314EAC211F9D05B
:103A2000C01A0A0603D0C01E10BDC01A10BD0A0479
:103A300001D0801E10BD0902FCD0401E10BD10B583
:103A4000203AC0F00B80B1E81850203AA0E8185096
:103A5000B1E81850A0E81850BFF4F5AF5FEA027C57
:103A600024BFB1E81850A0E8185044BF18C918C0C6
:103A7000BDE810405FEA827C24BF51F8043B40F867
:103A8000043B08BF7047D20728BF31F8023B48BF4C
:103A900011F8012B28BF20F8023B48BF00F8012B8A
:103AA00070474FF0000200B5134694469646203901
:103AB00022BFA0E80C50A0E80C50B1F12001BFF4E7
:103AC000F7AF090728BFA0E80C5048BF0CC05DF84D
:103AD00004EB890028BF40F8042B08BF704748BF9B
:103AE00020F8022B11F0804F18BF00F8012B70470F
:103AF00070477047704770B5044685690068C10615
:103B000001D5302600E02026C00707D070BDD4E9DB
:103B1000012130469047206A401C20626D1EF6D578
:103B200070BD70B5044685690078C00707D170BDC7
:103B3000D4E9012120209047206A401C20626D1E9C
:103B4000F6D570BD09684A0501D540B27047C90570
:103B5000FCD500B2704709684A0501D5C0B270476C
:103B6000C905FCD580B2704770B50C460546012AE0
:103B700005D02878800600D5EA69002302E00123F9
:103B800005E05B1C934202D2E05C0028F9D1A869F1
:103B9000E618C01AA861286A184428622846FFF768
:103BA000AAFF04E0D5E9012114F8010B9047B442C3
:103BB000F8D32846FFF7B5FF70BD00002DE9F041AE
:103BC0000646002410687529314616A510D0FFF767
:103BD000B9FF002802DA404213A507E031688A07DE
:103BE00001D512A502E0490704D511A5012401E081
:103BF000FFF7B1FF00210A2206F1240709E0B0FB1C
:103C0000F2FCB0FBF2F302FB1C0030307854184693
:103C1000491C0028F3D123462A463046BDE8F0412E
:103C200000F061BA000000002D0000002B00000031
:103C30002000000011680268006A530501D5087071
:103C40000AE0D30501D5088006E0130603D5C217A4
:103C5000C1E9000200E008600120704701694A1CC8
:103C600002610878704700B58FB0CDE901310021BD
:103C7000059105497944CDE903101146684600F0E5
:103C800029F90FB000BD0000E5FFFFFF0A6802F848
:103C9000010B0A60704700002DE9FF5F15468A4658
:103CA0000446DFF8AC80F8440027D8E900103E460F
:103CB000CDE9001010E03AF816106A4602A800F0AC
:103CC00023FE411C07D02178890603D5E269391803
:103CD00091420DD80744761C2078800602D5E06911
:103CE000B84205DDAE42E6DB3AF816000028E2D124
:103CF000A069C01BA0612046FFF7FDFED8E90010B7
:103D0000CDE90010002017E03AF818106A4602A822
:103D100000F0FAFDB0F1FF3F81460BD000250DF118
:103D2000080B05E0D4E901211BF8050090476D1C44
:103D30004D45F7D308F10100B0428046E4DB206A2C
:103D4000384420622046FFF7ECFEBDE8FF9F0000EC
:103D5000161700002DE9F0418046D21D22F007021F
:103D60000025D2E90002F52915A614D0011E72F132
:103D7000000106DA0023D0EB030063EB020211A678
:103D800008E0D8F800108B0701D50FA602E049071C
:103D900001D50EA601251146002408F1240704E0F0
:103DA00000F05CF930323A55641C50EA0102F7D158
:103DB0002B46324621464046BDE8F04100F093B91B
:103DC000000000002D0000002B000000200000007B
:103DD00030B4002100F1240408E002F00705D20805
:103DE000303542EA4372DB086554491C52EA030548
:103DF000F3D10468002310A2250707D5A40600D438
:103E000021B1C46901230DA2641EC46130BC00F05D
:103E10006AB910B5044621461068FFF79CFE0246B9
:103E20002046BDE810400023D2E7D21D22F0070152
:103E3000D1E90023CCE700000000000030000000C2
:103E4000F0B40D460188090502D5214C7C4402E0FE
:103E50001F4C7C440E34002100F1240608E002F0DF
:103E60000F071209E75D42EA03721B097754491CE8
:103E700052EA0307F3D102780023120704D5702D0C
:103E800006D009B1022311342246F0BC00F02BB950
:103E900001231034F8E770B504460D46214610683A
:103EA000FFF759FE024629462046BDE87040002330
:103EB000C6E7D21D22F00703D3E90023C0E7036859
:103EC000126843F0200303600823C3610023B7E7AF
:103ED000781500002DE9F05F894604464FF0000A8E
:103EE000DFF874B1FB44C0F820A02046E1688847A1
:103EF000002874D0252806D0D4E901219047206AF3
:103F0000401C2062F1E700265F462046E1688847B2
:103F10002028054607DB312D05D2781910F8200C32
:103F200008B10643F1E7B00701D526F00406C4F84E
:103F30001CA00027C4F818A02A2D09D0284601F09B
:103F400007FA38B304EB8708303DC8F8185019E079
:103F500059F8041B204604EB87029161E168884709
:103F6000012F054618D1E069002820DA26F0200646
:103F70001DE0D8F8180000EB800005EB4000303859
:103F8000C8F818002046E1688847054601F0E0F9C6
:103F90000028EED1012F0AD02E2D08D12046E1684D
:103FA00088477F1C0546022F46F02006C4DBA06927
:103FB000002803DA404246F00106A061F00701D074
:103FC00026F010066C2D0BD0682D09D04C2D39D061
:103FD0006A2D35D0742D35D07A2D33D016E038E0E7
:103FE000E1682F4620468847B842054609D16C2F24
:103FF00026D04FF48060E168064320468847054696
:1040000004E06C2F1AD04FF4807006430DB3A5F175
:104010004100192802D8203546F400664A46294650
:10402000204626604E46FCF7BFF880B101280BD031
:10403000F61D26F0070000F1080956E74020E4E7E6
:104040008020D8E70020D6E706F104094DE728468E
:1040500052E7206ABDE8F09F0815000030B5B0F1C6
:104060000A024FEA900E71F100034EEA817EB0EB36
:104070000E0061EB91014FEA101E4EEA017E10EB3B
:104080000E0041EB11114FEA102E4EEA016E10EBBB
:104090000E0041EB11214FEA104E4EEA014E10EB9B
:1040A0000E0041EB1141401841F100014FEAD000F0
:1040B00040EA41704FEAD10110EB80054FEA8104DC
:1040C00044EA907444EB01046D1944EB0404521B60
:1040D000A3414FF0000348BF0A3200D530BD401C59
:1040E00041F1000130BD2DE9F0470D469946924659
:1040F000044600F124080168880604D5E06921F02F
:104100001001216000E00120A84201DD471B00E012
:104110000027A1697A1902EB0900081AA06120782A
:10412000C00602D42046FFF7E6FC002608E0D4E9EA
:1041300001211AF806009047206A401C761C206274
:104140004E45F4DB2078C0060AD52046FFF7D3FCA5
:1041500006E0D4E9012130209047206A401C20620B
:10416000381EA7F10107F4DC07E0D4E9012118F8B3
:1041700005009047206A401C2062281EA5F1010519
:10418000F3DC2046FFF7CDFC2078000602D50220A4
:10419000BDE8F0870120FBE770472DE9FF4F0C4693
:1041A0001E464FF0FF378BB0D2E90001DDF860808A
:1041B0000A908A46C1F30A5505B93D4600210846D2
:1041C0004FF00000BAF1000F00F4400005DA00EBF8
:1041D00080004FF4400101EA50004FEA9059B9F1D4
:1041E000010F00DDB9460A9850EA4A000ED044F6A5
:1041F0001050A5F2FF3545432F14B8F1000F1ED023
:104200007542291E1EDDC9F100021CE0B8F1010F44
:104210004FF0000001D0302103E0F24305E02154CB
:10422000401CB042FBDB30460022002121540B9998
:10423000C1F80880C1E900200FB0BDE8F08FBD1BB8
:104240006D1CDEE74A4600DA694206A800F0EEFB84
:1042500006AB93E8070003AB83E8070050460A99D2
:1042600000F0A7FC8DE80700A0F500501F38009073
:104270000398002D09DD42F21F014A46084403A9B4
:104280000390684600F006FF08E0A0F500504A469B
:104290001F3803A90390684600F010FF8DE807005F
:1042A0000004000C03D04FF0FF30410800E010463E
:1042B000B8F1000F03D00022009215461EE0751ED3
:1042C00005D4FFF7CBFE303262556D1EF9D5B346EB
:1042D0000122084302D000227F1C04E0207830280D
:1042E00001D100227F1E002A099786D01DE0112DE2
:1042F00007DAFFF7B3FE303262556D1C50EA010257
:10430000F5D1084302D00098C8B10EE00021681E24
:1043100005E0235C625C63542254401E491C8142C8
:10432000F7DBAB46A81B401E0990002004F80B00E9
:104330000B98099AC0F80880C0E9002B7CE7112689
:104340004FF0000859E72DE9F04F88460446D21D8A
:1043500022F0070191B0D1E90001CDE90A0100F096
:10436000E3FF02460B98C00F01D02D2007E0206824
:10437000810701D52B2002E0202101EAC000032A99
:10438000099001D0072A05DB03464146204600F08C
:104390000DFB0BE12078800601D5E06900E00620E6
:1043A000B8F1650F814606D0B8F1660F18D0B8F1A4
:1043B000670F70D131E00020B9F1110F009001DBDF
:1043C000112301E009F101030AAA01A90CA8FFF7D2
:1043D000E4FEDDE90C70002609F10105834647E0A3
:1043E00001204B4600904FF000470AAA01A90CA8F3
:1043F000FFF7D3FEDDE90DB00C995D46002610B93C
:1044000009F101000D18B9EB050003D4C0F1FF3626
:1044100009F10105A5EB09002BE0B9F1010F01DA63
:104420004FF001090020B9F1110F0090484601DD5D
:10443000112300E003460AAA01A90CA8FFF7ADFE6C
:10444000DDE90C704D4600268346207800070AD42B
:10445000AB4500DA5D4601A8012D04DD411911F8D4
:10446000011C302907D04F4502DA17F1040F04DA96
:10447000012082460FE06D1EEEE7002F02DCED1BEF
:104480003E4403E0781CA84200DD7D1CB81B00F10F
:10449000010A4FF000472078000703D4AA4501DB4A
:1044A0004FF0FF3A0021B7F1004F0DF143088DF8AE
:1044B000431024D002202B23002F01DA7F422D232A
:1044C0000A21021EA0F1010000DC5FB197FBF1FCA4
:1044D00097FBF1F201FB1C7C17460CF1300C08F83D
:1044E00001CDEEE7A8F1010003702188090501D58F
:1044F000452100E06521A0F1010800F8011C0998A0
:104500000FA9A1EB0807FF1D00B10120411901EB24
:10451000EA70A1693844081A401EA0612078C006DC
:1045200002D42046FFF7E7FA099828B1D4E901211F
:104530009047206A401C20622078C00622D5204681
:10454000FFF7D9FA1EE0002E04DBB34502DD01A817
:10455000805D00E03020D4E901219047206A401CB2
:104560002062761CAAF101005FEA000A0AD100F07D
:1045700019FAC0680168405CD4E901219047206ABB
:10458000401C2062281EA5F10105DCDC07E0D4E90F
:10459000012118F8010B9047206A401C2062381E48
:1045A000A7F10107F3DC2046FFF7BBFA032011B0A7
:1045B00043E600002DE9F04F04460D46D21D22F0DF
:1045C000070089B0D0E900974846394600F0ACFEB4
:1045D0000246F80F01D02D2307E02068810701D59E
:1045E0002B2302E0202101EAC0038DF820300BB11B
:1045F000012000E00020032A824601D0072A04DBC4
:104600002946204600F0D2F93FE12078800601D407
:104610000D2500E0E569C7F30A560D2D49DA0021A2
:104620004FEA175B08464FF00000002F00F44000EF
:1046300007DA00EB80004FF4400100EBD07001EA94
:1046400060008115012901DD4FF0FF3100224FEAA2
:10465000850CBCF1180F06D31346ACF118004FF0CF
:104660008052C24003E04FF4801323FA0CF30CF1A4
:104670000C0CBCF1200F04D3ACF1200C09FA0CF0A7
:1046800001E007FA0CF000294FF0004801DD18B9ED
:104690000FE00ED140450CD319EB02095F4121B95F
:1046A000404502D19F4329EA0209BBEB175F00D0C6
:1046B000761C2088000502D57B48784402E07A48C1
:1046C0007844193808AA302302F80A30037C0AF12A
:1046D0000101002E0AF1020A53546A4602DC4FF02F
:1046E000300101E04FF031014FF001088DF800106A
:1046F00002D0A6F2FF3603E059EA470100D06B4E24
:10470000002D02DC2178090704D54FF002082E2184
:104710008DF80110C44600210BE0C7F303433F01AD
:10472000C35C491C6D1E02F80830052908F1010818
:1047300001DA002DF1DC00210CE000EB1973491CBB
:104740001B786D1E082902F808304FEA091908F194
:10475000010801DA002DF0DC21688B0602D516E095
:10476000A8F10108E04505DD02EB080313F8013C60
:10477000302BF5D0B8F1000F09DD02EB080313F878
:10478000013C2E2B03D1090701D4A8F10108002D0B
:1047900005DD3E2102F808106D1E08F10108407C7D
:1047A000002E02F8080008F1010804DA2D207642F4
:1047B00002F8080002E02B2002F808000A214FF45A
:1047C0007A70864208F101080BDB96FBF0F3303378
:1047D00002F8083096FBF0F308F1010800FB1366BD
:1047E00001E0642E0CDB642096FBF0F3303302F81A
:1047F000083096FBF0F308F1010800FB136601E0B6
:104800000A2E06DB96FBF1F0303002F8080008F1C2
:10481000010896FBF1F001FB1060303002F808004F
:10482000A16908F1010808EB050202EB0A00081A69
:10483000A0612078C00602D42046FFF75CF9216A07
:1048400008AE01EB0A00206204E0D4E9012116F869
:10485000010B9047BAF1010AF7D22078C00602D5C1
:104860002046FFF748F96E4609E016F8010B3E288E
:104870000FD0D4E901219047206A401C2062B8F192
:104880000108F2D22046FFF74CF909B00320BDE839
:10489000F08F206A2844206203E0D4E9012130200F
:1048A00090476D1EEBD3F8E7560D000002FCFFFFAA
:1048B00010B5436913B1AFF3008001E0FFF754F97D
:1048C000012010BD127800F124010A7000224A7004
:1048D0000122EDE711684FF0FF32E9E710B54369B7
:1048E00013B1AFF3008001E0FFF7D6F9012010BD4E
:1048F000128800F1240182840022C2840122EDE7A3
:1049000011684FF0FF32E9E770B516460C460546D0
:1049100000F040F8036893F80101012806D0FF2C4D
:104920000FD8185D68B101202C7070BDD3F8070155
:104930003246214603F2071303442846BDE870407F
:1049400018474FF0FF3070BD754600F0E7F8AE46EF
:1049500005006946534620F00700854618B020B58B
:10496000FEF706FABDE820404FF000064FF00007C2
:104970004FF000084FF0000B21F00701AC46ACE807
:10498000C009ACE8C009ACE8C009ACE8C0098D4674
:104990007047000010B500F005F8001D10BD00BF05
:1049A000ED09000000487047141B00202DE9F0417C
:1049B0001F46044603260168072A01F4006004DB51
:1049C00008B116A505E016A503E008B115A500E09D
:1049D00015A521F010002060A069C01EA0610FB1D4
:1049E000401EA0612046FFF786F84FB1D4E90121AF
:1049F00038469047206A401C2062C01C206206E0B6
:104A0000206AFAE7D4E9012115F8010B9047761ED8
:104A1000F8D22046FFF785F8BDE8F0814E414E0000
:104A20006E616E00494E4600696E66002DE9F047E2
:104A3000814616468AB0334878440DC88DE80D008B
:104A400030487844801C03AC0DC884E80D0041F662
:104A50009B300844372190FBF1F290FBF1F5A5F172
:104A6000800501FB12041B3C02D56442012000E0DA
:104A70000020DFF890A080460027FA44AAF1BE0A81
:104A80000DE0E00709D03246684607EB47010AEB24
:104A9000810100F013FB8DE8070064107F1C002CDF
:104AA000EFD1184F7F44AC3F18E0E80714D007EB74
:104AB00004100DF1180A90E80E008AE80E00C06894
:104AC000F04201D198190890324606A903A800F0D7
:104AD000F5FA03AB83E807006D10641C002DE4D1E8
:104AE00032466946B8F1000F03A802D000F0D2FAAE
:104AF00001E000F0E3FAC9E90001C9F808200AB0B2
:104B0000BDE8F087680A000010B50446AFF30080E6
:104B10002046BDE81040FBF7AABB000000487047E4
:104B2000F41A00204FF0013C50F8042B51F8043BDC
:104B30009A4221D1A2EB0C03934313EACC1317D171
:104B400050F8042B51F8043B9A4215D1A2EB0C0308
:104B5000934313EACC130BD150F8042B51F8043BC8
:104B60009A4209D1A2EB0C03934313EACC13DBD096
:104B70004FF00000704700BFD01A01BAB1FA81F1BE
:104B800001F0180122FA01F0CB40C1F12001DBB2A3
:104B9000C0B2C01A2CFA01F3D11A914311EAC31121
:104BA000E6D1704701491820ABBEFEE7260002009F
:104BB00070475FEA400C08BF91F0000F4FEA8C236A
:104BC0004FEAC12243EA51514FEA1C5018BF00F589
:104BD000F0404FEA300018BF41F000415FEA6C5CE2
:104BE00000F02980BCF1FF3F08BF40F080407047D3
:104BF000130C06BF12044FF0100C4FF0000C130EF4
:104C000004BF12020CF1080C130F04BF12010CF1C7
:104C1000040C930F04BF92000CF1020CD30F04BFDD
:104C200052000CF1010C11464FF00002A0F11F00E0
:104C3000A0EB0C00704711F0004F08BF704731F037
:104C400000413FF4D5AF0B0C06BF09044FF0100C28
:104C50004FF0000C0B0E04BF09020CF1080C0B0FF7
:104C600004BF09010CF1040C8B0F04BF89000CF187
:104C7000020CCB0F04BF49000CF1010CCCF1200356
:104C8000A0EB0C0022FA03F302FA0CF241EA030152
:104C900000F10100704720F07F4C80EA030023F010
:104CA0007F47ACEB070303F57C5300F0004003F1B2
:104CB000FF032DE980494FEA154B09B44FEA14432D
:104CC00025EA0B4E24EA03480FF2042606EB1327CD
:104CD00049083E785FEA320203FB0667C7F5000722
:104CE00007FB06F64FEA54374FEAD64606F10206AE
:104CF00007FB066CCCF1005C4FEA1C472CEA074C22
:104D000007FB06F40CFB06F504EB15464FEA961676
:104D100034BF00204FF000404FEAD13706FB07FCBC
:104D20004FEA1C4C0CFB0BF7D21B03FB0CF761EB9F
:104D300007010CFB0EF7B0EB074072EB17420CFBC0
:104D400008F734BFA2EB0742B2EB074261EB174111
:104D50004FEA0C444FEA910706FB07FC4FEA1C4C54
:104D60000CFB0BF7B0EBC74072EB573203FB0CF7B1
:104D700034BFA2EBC742B2EBC74261EB57310CFB29
:104D80000EF7B0EBC70072EB57720CFB08F734BF9D
:104D9000A2EBC702B2EBC70261EB5771039F4FEA68
:104DA000816141EA921104EBCC044FEAD1374FEA1A
:104DB000826206FB07FC42EA90124FEA80604FEAEB
:104DC0001C4C0CFB0BF7D21B03FB0CF761EB070130
:104DD0000CFB0EF7B0EB074072EB17420CFB08F729
:104DE00034BFA2EB0742B2EB074261EB17414FEA37
:104DF0008C554FEA910704EB9C2406FB07FC4FEA15
:104E00001C4C0CFB0BF7B0EBC74072EB573203FBAB
:104E10000CF734BFA2EBC742B2EBC74261EB57318C
:104E20000CFB0EF7B0EBC70072EB57720CFB08F7E8
:104E300034BFA2EBC702B2EBC70261EB577115EBAF
:104E40004C254FEA816141EA92114FEA82624FEAB2
:104E5000D13742EA901206FB07FC44F100044FEA06
:104E600080604FEA1C4C0CFB0BF7D21B03FB0CF7CA
:104E700061EB07010CFB0EF7B0EB074072EB17423A
:104E80000CFB08F734BFA2EB0742B2EB074261EB21
:104E9000174115EB1C154FEA813141EA92414FEA67
:104EA000823242EA90424FEA80304FEA0C7644F177
:104EB000000448EA03434EEA0B484FF0000EB2EB01
:104EC000080C71EB030724BF624639464EEB0E0E09
:104ED0004FF0000B0018524149414BEB0B0BB2EB6A
:104EE000080C71EB03077BF1000B24BF62463946C7
:104EF0004EEB0E0E4FF0000B0018524149414BEBA8
:104F00000B0BB2EB080C71EB03077BF1000B24BF1A
:104F1000624639464EEB0E0E51EA020718BF46F0C4
:104F2000010616EB0E7655F1000254F1000103D58F
:104F3000BDE88901BDE80088BDE88901BDE80048F9
:104F4000B619524141EB0101A3F101037047808082
:104F50007F7E7D7C7B7A79787776767574737271D3
:104F600071706F6E6E6D6C6C6B6A6A69686867668B
:104F700066656464636362616160605F5F5E5E5D1D
:104F80005D5C5C5B5B5A5A59595858575756565591
:104F900055555454535352525251515050504F4FF3
:104FA0004F4E4E4D4D4D4C4C4C4B4B4B4A4A4A4943
:104FB0004949484848474747474646464545454486
:104FC0004444444343434342424242414141002B13
:104FD00026D4770021D01CB54FEA370703B44FF031
:104FE00010004FF010014FF000000FBCBDE8104062
:104FF0000BF1010BBBF1010F08BF5FEA170722BFDE
:1050000012F1010211F101014FF0004143F10003DF
:1050100000F0004043EA00007047F9D35708DAE790
:1050200046EA064613F1400F4FEA16461FDD13F11C
:10503000200FDFBF16430A46002120335B42C8D051
:10504000C3F1200746EA064602FA07F74FEA16467A
:1050500046EA0706C3F1200722FA03F201FA07F72E
:1050600021FA03F14FF0000342EA0702B1E746EAF2
:10507000020646EA06464FEA164646EA0106BCBF65
:1050800046EA0646360C4FF000034FF000024FF0A0
:1050900000019EE72DE9C048934630B491E83800FE
:1050A00007C831EA400C48BF34EA430C03D5FFF788
:1050B000F2FDFFF78CFFF0BCBDE800882DE9C04889
:1050C000934630B491E8380007C810F0804F08BF0D
:1050D00013F0804F03D100F005F8FFF778FFF0BC24
:1050E000BDE8008820F07F4780EA030023F07F4C72
:1050F00007EB0C03A3F57C5300F00040A3F1FE0383
:1051000092F0000F00F0B38095F0000F00F0778070
:105110002DE901494FEA11404FEA144621EA0048BF
:1051200000FB06FC24EA064708FB06F607FB08F826
:1051300000FB07F718EB06484CEB164C4FEA124BF6
:1051400018EB07484FEA15464CEB174022EA0B4E86
:105150000BFB06FC25EA06470EFB06F607FB0EFED8
:105160000BFB07F71EEB064E4CEB164C4FF0000600
:105170001EEB074E4CEB174B18EB0B0840F10000F1
:1051800018EB0E0B58EB000840F100008F1A4FF09F
:1051900000013CBFC943661B14BFB5EB040C0021E2
:1051A0003CBFC943F61B4FEA17444EEA8E0E27EA6E
:1051B00004454FEA1C4704FB07622CEA074C05FB39
:1051C00007F70CFB05F604FB0CFC16EB074642EB5D
:1051D000174216EB0C4642EB1C421BEB060658EB43
:1051E0000202414146EA9E0601D5BDE80189B61991
:1051F000524141EB0101A3F10103BDE801894FEAEE
:1052000014454FEA114724EA054621EA074C05FBFD
:1052100007F406FB07F70CFB06F105FB0CFC11EB92
:10522000074144EB17444FEA124711EB0C4144EBA2
:105230001C4422EA074C05FB07F206FB07F70CFBB0
:1052400006F605FB0CFC16EB074642EB174216EB85
:105250000C4642EB1C456A1854F1000148BF7047E8
:10526000B619524141EB0101A3F10103704795F0DA
:10527000000F37D04FEA11424FEA144721EA0246A5
:1052800024EA074C02FB07F106FB07F70CFB06F4C8
:1052900002FB0CFC14EB074441EB17414FEA1547A6
:1052A00014EB0C4441EB1C4125EA074C02FB07F5CB
:1052B00006FB07F70CFB06F602FB0CFC16EB074699
:1052C00045EB174516EB0C4645EB1C42121951F104
:1052D000000148BF7047B619524141EB0101A3F1EB
:1052E000010370474FEA14454FEA114724EA054687
:1052F00021EA074C05FB07F106FB07F70CFB06F25A
:105300004FF0000605FB0CFC12EB074241EB174186
:1053100012EB0C4251EB1C4148BF7047921841EB15
:105320000101A3F101037047490050EAC12018BFF1
:1053300004204A0D18BF40F0010040F2FF72B2EBAA
:10534000515F08BF40F00200012808BF05207047E8
:1053500030380A2801D20120704700207047000031
:1053600010B500290AD00878002807D005487844ED
:10537000FFF7D8FB002801D0002010BD0248784478
:1053800010BD00006E0100006601000010B500298C
:105390000AD00878002807D005487844FFF7C2FBF8
:1053A000002801D0002010BD0248784410BD000044
:1053B0005E01000056010000FEF7C5BFFFF7FAB816
:1053C0000000000000000000303132333435363741
:1053D0003839414243444546403058003031323339
:1053E0003435363738396162636465664030780039
:1053F000040000080000000000000002000100009E
:105400001030313233343536373839616263646590
:1054100066787000303132333435363738394142AE
:10542000434445465850000002400000000000A0E0
:105430000000000005400000000000C8000000005F
:105440000C4000000000409C0000000019400000DB
:105450000020BCBE0000000034400000BFC91B8E0D
:1054600000000004B5400000504BCFD06607E2CFEB
:10547000010000006C4100003E8251AADFEEA7341B
:1054800001000000D9420000DCB5A0E23A301F97CD
:10549000FFFFFFFFB4450000FD25A0C8E9A3C14FF1
:1054A000FFFFFFFFFF3F0000000000800000000042
:1054B000FF3F0000000000800000000008560008C8
:1054C00000000020B010000028010008085A000861
:1054D000B0100020A81000008C0100081C00000083
:1054E00043000000F8FFFFFF0C0000000E0000006A
:1054F0000F0000002E00000010010000430000001B
:10550000F8FFFFFF004040404040404040404141E4
:105510004141414040404040404040404040404088
:105520004040404040050202020202020202020222
:10553000020202020220202020202020202020021F
:1055400002020202020290909090909010101010AF
:10555000101010101010101010101010101010104B
:1055600002020202020288888888888808080808DF
:1055700008080808080808080808080808080808AB
:1055800002020202400000000000000000000000D3
:10559000000000000000000000000000000000000B
:1055A00000000000000000000000000000000000FB
:1055B00000000000000000000000000000000000EB
:1055C00000000000000000000000000000000000DB
:1055D00000000000000000000000000000000000CB
:1055E00000000000000000000000000000000000BB
:1055F00000000000000000000000000000000000AB
:105600000000000000000000E200016004A24A0463
:105610000B100A0102030406070809FF0130050107
:105620000007132040041BEF0110100503010005C3
:105630000610091D002101000804012F50042C0050
:105640003B0B230013161304020F21071004020062
:10565000092A320506000E390D0011010006060167
:10566000000B001900013005C0C0C0E00111094164
:105670000B0269000126FE14200AFFE78381010363
:1056800003071F0C03673F077D1280015009830742
:105690000F1F1F3F7FFF011004DF0F8F01321F8A92
:1056A000025D0FFC32E0738009F8E0E08080C0F812
:1056B000FF01127F791B030317015CFE2207011112
:1056C000683005C7C7E7F7FC3004C3C3C314026CD6
:1056D00000019203010554E7140A000098FCFC9CA9
:1056E0000C0C1CF23806E0F0DCFCFCF8640AF0FC60
:1056F0007CFCE0F0FC3C0C8F2008F8FCFCCCCCCC13
:105700000C1A1009FC7C6C6C6C0C00801410087C6A
:10571000FCF0F8FC1C0C1E114200052ECCDCC8C0AD
:105720007F4210DC5201EB4105710BB507B510410A
:105730001451051D1604051C238201011009814125
:105740004121211111090112E904900911111121BE
:10575000214141812260040101FFF5AB180668A2D6
:10576000FF52F0040618E019C70F30002C0A01019F
:10577000020404081010204A040312380749312299
:10578000112343102001110A2C04080804D404A199
:1057900079B2FF9F1201C031C171C0C1BF51C104B4
:1057A0000814061E1EFE7EFEFE11A1BF81C10C055F
:1057B000110738408088049007F8F8F0E0F8C71A1D
:1057C000E37F00C221C321018708086F0D27E80489
:1057D000022EFF20032B808040DDD405000716FC3D
:1057E000FF3FFFF8C0601D660500071521217BFF04
:1057F000DFCC20000A16FCFEFF0701038F8F8EA06E
:105800002DC8060C06140307FFFEFC7103000A15E1
:105810001E1F1F0101031F1F1C601C070F0F0F0C11
:105820000C0C7D040115200008170107070E0C0C55
:105830000F2041411DBD0499BB021C4001025D7F48
:1058400020000C23400808C8C8C848C8C8880801F8
:105850000E1DF8180722F825328801F13C011113BA
:1058600029941C057F7F7F04D105081C2E787B6B53
:105870006B7F7F003E7E60607E7E00246E6E5A7677
:1058800076003C7E6E4A6E2E901C0CFFFF0838FF9F
:10589000EF80F6F6D6D665031E0423062B84841FFC
:1058A0002D40051005FCFCC4C4094C05FCFC0C0C87
:1058B0005005200500E0F0F0033D56073E805D07EF
:1058C0006004F0F0000E0D331003012B521A007526
:1058D000210310080F1F19181F0F00071004191FAC
:1058E0001F070005351B121B0B80114021030123EC
:1058F00052021C0201025DFE20CE02D9081EF817DA
:10590000050F16F08000040C0A15FEFEFE4242F65A
:10591000FEBE9800040C0916F8FCFE0E03071E1EBE
:10592000C003214108061502060EFEFCC6000A153A
:105930003C3F3F0302073F3F38600C0A151F1F1F03
:105940001818180F0F0720041406030F0F1C1873E4
:105950000116204141BE0E2104021C2001025D3FC0
:10596000200AFF2000099C00025DFF200E1D20D0B0
:10597000050E1DEF080D023DFB20023D0060023EBA
:10598000F3806D9F09AD890A9D950A827F15ADABA5
:105990000A7124021ADF1D2DEF09011255A17105AC
:1059A0003D800E3DEFC0091DC20A2C047E3C181B31
:1059B00003ADB603328201BD08067EFF6D0C1E3EAC
:1059C000770E5C0BF3C3830307070F3EFCF86B0BEA
:1059D00052FF205C12071F3F7CF0E0E0C1C3C7CF3D
:1059E000FEF8F87C3F1F5B0BBAFFC9322101B9A852
:1059F000558EED0D0B1D82106D8610000700020400
:085A0000060800000000000090
:04000005080000ED02
:00000001FF
